"use strict";(self.webpackChunknumblock_docs=self.webpackChunknumblock_docs||[]).push([[3670],{3905:(e,A,t)=>{t.d(A,{Zo:()=>l,kt:()=>p});var n=t(7294);function a(e,A,t){return A in e?Object.defineProperty(e,A,{value:t,enumerable:!0,configurable:!0,writable:!0}):e[A]=t,e}function i(e,A){var t=Object.keys(e);if(Object.getOwnPropertySymbols){var n=Object.getOwnPropertySymbols(e);A&&(n=n.filter((function(A){return Object.getOwnPropertyDescriptor(e,A).enumerable}))),t.push.apply(t,n)}return t}function c(e){for(var A=1;A<arguments.length;A++){var t=null!=arguments[A]?arguments[A]:{};A%2?i(Object(t),!0).forEach((function(A){a(e,A,t[A])})):Object.getOwnPropertyDescriptors?Object.defineProperties(e,Object.getOwnPropertyDescriptors(t)):i(Object(t)).forEach((function(A){Object.defineProperty(e,A,Object.getOwnPropertyDescriptor(t,A))}))}return e}function o(e,A){if(null==e)return{};var t,n,a=function(e,A){if(null==e)return{};var t,n,a={},i=Object.keys(e);for(n=0;n<i.length;n++)t=i[n],A.indexOf(t)>=0||(a[t]=e[t]);return a}(e,A);if(Object.getOwnPropertySymbols){var i=Object.getOwnPropertySymbols(e);for(n=0;n<i.length;n++)t=i[n],A.indexOf(t)>=0||Object.prototype.propertyIsEnumerable.call(e,t)&&(a[t]=e[t])}return a}var r=n.createContext({}),s=function(e){var A=n.useContext(r),t=A;return e&&(t="function"==typeof e?e(A):c(c({},A),e)),t},l=function(e){var A=s(e.components);return n.createElement(r.Provider,{value:A},e.children)},d="mdxType",h={inlineCode:"code",wrapper:function(e){var A=e.children;return n.createElement(n.Fragment,{},A)}},u=n.forwardRef((function(e,A){var t=e.components,a=e.mdxType,i=e.originalType,r=e.parentName,l=o(e,["components","mdxType","originalType","parentName"]),d=s(t),u=a,p=d["".concat(r,".").concat(u)]||d[u]||h[u]||i;return t?n.createElement(p,c(c({ref:A},l),{},{components:t})):n.createElement(p,c({ref:A},l))}));function p(e,A){var t=arguments,a=A&&A.mdxType;if("string"==typeof e||a){var i=t.length,c=new Array(i);c[0]=u;var o={};for(var r in A)hasOwnProperty.call(A,r)&&(o[r]=A[r]);o.originalType=e,o[d]="string"==typeof e?e:a,c[1]=o;for(var s=2;s<i;s++)c[s]=t[s];return n.createElement.apply(null,c)}return n.createElement.apply(null,t)}u.displayName="MDXCreateElement"},6397:(e,A,t)=>{t.r(A),t.d(A,{assets:()=>r,contentTitle:()=>c,default:()=>d,frontMatter:()=>i,metadata:()=>o,toc:()=>s});var n=t(7462),a=(t(7294),t(3905));const i={title:"Transactions",description:"An overview of NumBlock transactions \u2013 how they work, their data structure, and how to send them via an application.",lang:"en"},c=void 0,o={unversionedId:"foundational-topics/transactions",id:"foundational-topics/transactions",title:"Transactions",description:"An overview of NumBlock transactions \u2013 how they work, their data structure, and how to send them via an application.",source:"@site/docs/foundational-topics/transactions.md",sourceDirName:"foundational-topics",slug:"/foundational-topics/transactions",permalink:"/docs/foundational-topics/transactions",draft:!1,tags:[],version:"current",frontMatter:{title:"Transactions",description:"An overview of NumBlock transactions \u2013 how they work, their data structure, and how to send them via an application.",lang:"en"},sidebar:"develop",previous:{title:"Nabox Wallet",permalink:"/docs/foundational-topics/wallets/software/nabox-wallet"},next:{title:"Blocks",permalink:"/docs/foundational-topics/blocks"}},r={},s=[{value:"Prerequisites",id:"prerequisites",level:2},{value:"What&#39;s a transaction?",id:"whats-a-transaction",level:2},{value:"The data field",id:"the-data-field",level:3},{value:"Types of transactions",id:"types-of-transactions",level:2},{value:"On gas",id:"on-gas",level:3},{value:"Transaction lifecycle",id:"transaction-lifecycle",level:2},{value:"Typed Transaction Envelope",id:"typed-transaction-envelope",level:2}],l={toc:s};function d(e){let{components:A,...i}=e;return(0,a.kt)("wrapper",(0,n.Z)({},l,i,{components:A,mdxType:"MDXLayout"}),(0,a.kt)("p",null,"Transactions are cryptographically signed instructions from accounts. An account will initiate a transaction to update the state of the NumBlock network. The simplest transaction is transferring NUMB from one account to another."),(0,a.kt)("h2",{id:"prerequisites"},"Prerequisites"),(0,a.kt)("p",null,"To help you better understand this page, we recommend you first read ",(0,a.kt)("a",{parentName:"p",href:"/docs/foundational-topics/account/"},"Accounts")," and our ",(0,a.kt)("a",{parentName:"p",href:"/docs/foundational-topics/intro-to-token/"},"introduction to NumBlock"),"."),(0,a.kt)("h2",{id:"whats-a-transaction"},"What's a transaction?"),(0,a.kt)("p",null,"A NumBlock transaction refers to an action initiated by an externally-owned account, in other words an account managed by a human, not a contract. For example, if Bob sends Alice 1 NUMB, Bob's account must be debited and Alice's must be credited. This state-changing action takes place within a transaction."),(0,a.kt)("p",null,(0,a.kt)("img",{alt:"Diagram showing a transaction cause state change",src:t(3576).Z,width:"1080",height:"607"})),(0,a.kt)("p",null,"Transactions, which change the state of the EVM, need to be broadcast to the whole network. Any node can broadcast a request for a transaction to be executed on the EVM; after this happens, a validator will execute the transaction and propagate the resulting state change to the rest of the network."),(0,a.kt)("p",null,"Transactions require a fee and must be included in a validated block. To make this overview simpler we'll cover gas fees and validation elsewhere."),(0,a.kt)("p",null,"A submitted transaction includes the following information:"),(0,a.kt)("ul",null,(0,a.kt)("li",{parentName:"ul"},(0,a.kt)("inlineCode",{parentName:"li"},"recipient")," \u2013 the receiving address (if an externally-owned account, the transaction will transfer value. If a contract account, the transaction will execute the contract code)"),(0,a.kt)("li",{parentName:"ul"},(0,a.kt)("inlineCode",{parentName:"li"},"signature")," \u2013 the identifier of the sender. This is generated when the sender's private key signs the transaction and confirms the sender has authorized this transaction"),(0,a.kt)("li",{parentName:"ul"},(0,a.kt)("inlineCode",{parentName:"li"},"nonce")," - a sequencially incrementing counter which indicates the transaction number from the account"),(0,a.kt)("li",{parentName:"ul"},(0,a.kt)("inlineCode",{parentName:"li"},"value")," \u2013 amount of NUMB to transfer from sender to recipient (in WEI, a denomination of NUMB)"),(0,a.kt)("li",{parentName:"ul"},(0,a.kt)("inlineCode",{parentName:"li"},"data")," \u2013 optional field to include arbitrary data"),(0,a.kt)("li",{parentName:"ul"},(0,a.kt)("inlineCode",{parentName:"li"},"gasLimit")," \u2013 the maximum amount of gas units that can be consumed by the transaction. Units of gas represent computational steps"),(0,a.kt)("li",{parentName:"ul"},(0,a.kt)("inlineCode",{parentName:"li"},"maxPriorityFeePerGas")," - the maximum amount of gas to be included as a tip to the validator"),(0,a.kt)("li",{parentName:"ul"},(0,a.kt)("inlineCode",{parentName:"li"},"maxFeePerGas")," - the maximum amount of gas willing to be paid for the transaction (inclusive of ",(0,a.kt)("inlineCode",{parentName:"li"},"baseFeePerGas")," and ",(0,a.kt)("inlineCode",{parentName:"li"},"maxPriorityFeePerGas"),")")),(0,a.kt)("p",null,"Gas is a reference to the computation required to process the transaction by a validator. Users have to pay a fee for this computation. The ",(0,a.kt)("inlineCode",{parentName:"p"},"gasLimit"),", and ",(0,a.kt)("inlineCode",{parentName:"p"},"maxPriorityFeePerGas")," determine the maximum transaction fee paid to the validator. ",(0,a.kt)("a",{parentName:"p",href:"/docs/foundational-topics/gas/"},"More on Gas"),"."),(0,a.kt)("p",null,"The transaction object will look a little like this:"),(0,a.kt)("pre",null,(0,a.kt)("code",{parentName:"pre",className:"language-js"},'{\n  from: "0xEA674fdDe714fd979de3EdF0F56AA9716B898ec8",\n  to: "0xac03bb73b6a9e108530aff4df5077c2b3d481e5a",\n  gasLimit: "21000",\n  maxFeePerGas: "300",\n  maxPriorityFeePerGas: "10",\n  nonce: "0",\n  value: "10000000000"\n}\n')),(0,a.kt)("p",null,"But a transaction object needs to be signed using the sender's private key. This proves that the transaction could only have come from the sender and was not sent fraudulently."),(0,a.kt)("p",null,"An NumBlock client like Geth will handle this signing process."),(0,a.kt)("p",null,"Example ",(0,a.kt)("a",{parentName:"p",href:"/docs/category/json-rpc-commands"},"JSON-RPC")," call:"),(0,a.kt)("pre",null,(0,a.kt)("code",{parentName:"pre",className:"language-json"},'{\n  "id": 2,\n  "jsonrpc": "2.0",\n  "method": "account_signTransaction",\n  "params": [\n    {\n      "from": "0x1923f626bb8dc025849e00f99c25fe2b2f7fb0db",\n      "gas": "0x55555",\n      "maxFeePerGas": "0x1234",\n      "maxPriorityFeePerGas": "0x1234",\n      "input": "0xabcd",\n      "nonce": "0x0",\n      "to": "0x07a565b7ed7d7a678680a4c162885bedbb695fe0",\n      "value": "0x1234"\n    }\n  ]\n}\n')),(0,a.kt)("p",null,"Example response:"),(0,a.kt)("pre",null,(0,a.kt)("code",{parentName:"pre",className:"language-json"},'{\n  "jsonrpc": "2.0",\n  "id": 2,\n  "result": {\n    "raw": "0xf88380018203339407a565b7ed7d7a678680a4c162885bedbb695fe080a44401a6e4000000000000000000000000000000000000000000000000000000000000001226a0223a7c9bcf5531c99be5ea7082183816eb20cfe0bbc322e97cc5c7f71ab8b20ea02aadee6b34b45bb15bc42d9c09de4a6754e7000908da72d48cc7704971491663",\n    "tx": {\n      "nonce": "0x0",\n      "maxFeePerGas": "0x1234",\n      "maxPriorityFeePerGas": "0x1234",\n      "gas": "0x55555",\n      "to": "0x07a565b7ed7d7a678680a4c162885bedbb695fe0",\n      "value": "0x1234",\n      "input": "0xabcd",\n      "v": "0x26",\n      "r": "0x223a7c9bcf5531c99be5ea7082183816eb20cfe0bbc322e97cc5c7f71ab8b20e",\n      "s": "0x2aadee6b34b45bb15bc42d9c09de4a6754e7000908da72d48cc7704971491663",\n      "hash": "0xeba2df809e7a612a0a0d444ccfa5c839624bdc00dd29e3340d46df3870f8a30e"\n    }\n  }\n}\n')),(0,a.kt)("ul",null,(0,a.kt)("li",{parentName:"ul"},"the ",(0,a.kt)("inlineCode",{parentName:"li"},"raw")," is the signed transaction in Recursive Length Prefix (RLP) encoded form"),(0,a.kt)("li",{parentName:"ul"},"the ",(0,a.kt)("inlineCode",{parentName:"li"},"tx")," is the signed transaction in JSON form")),(0,a.kt)("p",null,"With the signature hash, the transaction can be cryptographically proven that it came from the sender and submitted to the network."),(0,a.kt)("h3",{id:"the-data-field"},"The data field"),(0,a.kt)("p",null,"The vast majority of transactions access a contract from an externally-owned account.\nMost contracts are written in Solidity and interpret their data field in accordance with the application binary interface (ABI)."),(0,a.kt)("p",null,"The first four bytes specify which function to call, using the hash of the function's name and arguments.\nYou can sometimes identify the function from the selector using ",(0,a.kt)("a",{parentName:"p",href:"https://www.4byte.directory/signatures/"},"this database"),"."),(0,a.kt)("p",null,"The rest of the calldata is the arguments, ",(0,a.kt)("a",{parentName:"p",href:"https://docs.soliditylang.org/en/latest/abi-spec.html#formal-specification-of-the-encoding"},"encoded as specified in the ABI specs"),"."),(0,a.kt)("p",null,"For example, lets look at ",(0,a.kt)("a",{parentName:"p",href:"https://etherscan.io/tx/0xd0dcbe007569fcfa1902dae0ab8b4e078efe42e231786312289b1eee5590f6a1"},"this transaction"),".\nUse ",(0,a.kt)("strong",{parentName:"p"},"Click to see More")," to see the calldata."),(0,a.kt)("p",null,"The function selector is ",(0,a.kt)("inlineCode",{parentName:"p"},"0xa9059cbb"),". There are several ",(0,a.kt)("a",{parentName:"p",href:"https://www.4byte.directory/signatures/?bytes4_signature=0xa9059cbb"},"known functions with this signature"),".\nIn this case ",(0,a.kt)("a",{parentName:"p",href:"https://etherscan.io/address/0xa0b86991c6218b36c1d19d4a2e9eb0ce3606eb48#code"},"the contract source code")," has been uploaded to Etherscan, so we know the function is ",(0,a.kt)("inlineCode",{parentName:"p"},"transfer(address,uint256)"),"."),(0,a.kt)("p",null,"The rest of the data is:"),(0,a.kt)("pre",null,(0,a.kt)("code",{parentName:"pre"},"0000000000000000000000004f6742badb049791cd9a37ea913f2bac38d01279\n000000000000000000000000000000000000000000000000000000003b0559f4\n")),(0,a.kt)("p",null,"According to the ABI specifications, integer values (such as addresses, which are 20-byte integers) appear in the ABI as 32-byte words, padded with zeros in the front.\nSo we know that the ",(0,a.kt)("inlineCode",{parentName:"p"},"to")," address is ",(0,a.kt)("inlineCode",{parentName:"p"},"4f6742badb049791cd9a37ea913f2bac38d01279"),".\nThe ",(0,a.kt)("inlineCode",{parentName:"p"},"value")," is 0x3b0559f4 = 990206452."),(0,a.kt)("h2",{id:"types-of-transactions"},"Types of transactions"),(0,a.kt)("p",null,"On NumBlock there are a few different types of transactions:"),(0,a.kt)("ul",null,(0,a.kt)("li",{parentName:"ul"},"Regular transactions: a transaction from one account to another."),(0,a.kt)("li",{parentName:"ul"},"Contract deployment transactions: a transaction without a 'to' address, where the data field is used for the contract code."),(0,a.kt)("li",{parentName:"ul"},"Execution of a contract: a transaction that interacts with a deployed smart contract. In this case, 'to' address is the smart contract address.")),(0,a.kt)("h3",{id:"on-gas"},"On gas"),(0,a.kt)("p",null,"As mentioned, transactions cost ",(0,a.kt)("a",{parentName:"p",href:"/docs/foundational-topics/gas/"},"gas")," to execute. Simple transfer transactions require 21000 units of Gas."),(0,a.kt)("p",null,"Gas is required for any smart contract interaction too."),(0,a.kt)("p",null,(0,a.kt)("img",{alt:"Diagram showing how unused gas is refunded",src:t(6804).Z,width:"1080",height:"607"})),(0,a.kt)("p",null,"Any gas not used in a transaction is refunded to the user account."),(0,a.kt)("h2",{id:"transaction-lifecycle"},"Transaction lifecycle"),(0,a.kt)("p",null,"Once the transaction has been submitted the following happens:"),(0,a.kt)("ol",null,(0,a.kt)("li",{parentName:"ol"},"Once you send a transaction, cryptography generates a transaction hash:\n",(0,a.kt)("inlineCode",{parentName:"li"},"0x97d99bc7729211111a21b12c933c949d4f31684f1d6954ff477d0477538ff017")),(0,a.kt)("li",{parentName:"ol"},"The transaction is then broadcast to the network and included in a pool with lots of other transactions."),(0,a.kt)("li",{parentName:"ol"},'A validator must pick your transaction and include it in a block in order to verify the transaction and consider it "successful".'),(0,a.kt)("li",{parentName:"ol"},'As time passes the block containing your transaction will be upgraded to "justified" then "finalized". These upgrades make it much\nmore certain that your transaction was successful and will never be altered. Once a block is "finalized" it could only ever be changed\nby an attack that would cost many billions of dollars.')),(0,a.kt)("h2",{id:"typed-transaction-envelope"},"Typed Transaction Envelope"),(0,a.kt)("p",null,"NumBlock originally had one format for transactions. Each transaction contained a nonce, gas price, gas limit, to address, value, data, v, r, and s. These fields are RLP-encoded, to look something like this:"),(0,a.kt)("p",null,(0,a.kt)("inlineCode",{parentName:"p"},"RLP([nonce, gasPrice, gasLimit, to, value, data, v, r, s])")),(0,a.kt)("p",null,"In the new standard, transactions are interpreted as:"),(0,a.kt)("p",null,(0,a.kt)("inlineCode",{parentName:"p"},"TransactionType || TransactionPayload")),(0,a.kt)("p",null,"Where the fields are defined as:"),(0,a.kt)("ul",null,(0,a.kt)("li",{parentName:"ul"},(0,a.kt)("inlineCode",{parentName:"li"},"TransactionType")," - a number between 0 and 0x7f, for a total of 128 possible transaction types."),(0,a.kt)("li",{parentName:"ul"},(0,a.kt)("inlineCode",{parentName:"li"},"TransactionPayload")," - an arbitrary byte array defined by the transaction type.")))}d.isMDXComponent=!0},3576:(e,A,t)=>{t.d(A,{Z:()=>n});const n="data:image/png;base64,iVBORw0KGgoAAAANSUhEUgAABDgAAAJfCAMAAACt75ZlAAAAG1BMVEVMaXH/cyT/cyT6ci6kpPN4eOwFBQcyMkpoaJvmPhsbAAAABHRSTlMA/KZOZnSb1gAAAAlwSFlzAAALEwAACxMBAJqcGAAADJdJREFUeNrt3YFyosgCBVDptqH//4unbBAaBDUZo6Ln1KvZOCZmn/fmriJJDgcAAAAAAAAAAAAAAAAAAAAAAAAAAAAAAAAAAAAAAAAAAAAAAAAAAAAAAAAAAAAAAAAAAAAAAAAAAAAAAAAAAAAAAAAAAAAAAAAAAAAAAAAAAAAAAAAAAAAAAAAAAAAAAAAAAAAAAAAAAAAAAAAAAAAAAAAAAAAAAAAAAAAAAAAAAAAAAAAAAAAAAAAAAAAAAAAAAAAAAAAAAAAAAAAAAAAAAAAAAAAAAAAAAAAAAAAAAAAAAAAAAAAAAAAAAAAAAAAAAAAA4CvFxH+IGqR3X9k7GfwfE6B3X9m7lI78muHQuy/tnQANh97pnQANh+HQOwEK0HBgOASI3hkOAZoAvTMcGA690zsBGg7DoXcCFKDhwHAI0HBgOASI3hkODIfe6Z0ADYfh0DsBCtBw6J0ABWg4MBwCRO8MB4ZD7/ROgIZD7/ROgIbDcOidAAVoODAcAkTvDAeGQ+8MB4ZD7/ROgIbDcOidAAVoODAcAkTvDIcA0TvDgeHQO70ToOEwHHonQAEaDgyHAA0HhkOA6J3hwHDond4J0HAYDr0ToAANh94JUICGA8MhQPTOcGA49E7vBGg49E7vBGg4DIfeCVCAhgPDIUD0znBgOPTOcGA49E7vBGg4DIfeCVCAhgPDIUDDoXeGQ4DoneHAcOid3gnQcNzSNEHv9E6AhuNHYtM0eqd3AjQcHnHonQC/JsDQxCcNhd7pnQANh+HQOwEaDsOB4RDgnasRQtOEkzhcDOEQQ9MMa3J6MwzDEoerQrU507Xlo5swXRmra+P0eQ7j56k+8hBmnyf2l/XOcAjwPQNsRvF8MRymy6G/Lgyvg4RQvW957+oLPDazK88XQ31hfrth+a+x/Dx6ZzgEuI+nKuWrNh4OMfZf77F8WcfhqvJGGL7Ah3+ep6L/ug/nL/f+YhyH5OKpSpiGY7ylcWXiX7zsoneGQ4B/NhzVF3gM58UYrppNwPCBwzsdhmch08os5mF7OBY3fL4YH/2QQ+8MhwD/bjji5blaod6CaTjC9s2NtxpvP+IY3+o/aPl59M5wCHAHwzEfjRhDWB+OeDrEEefvezoiGtdfq7k2HNFwGA4B7vwYx+y62RHOxRd0nB3ijIvDn4ffDEcwHIZDgHsfjtC/RLrxVKU8xhhfuY3D66nhvx5xGA7DIcDdD8f4nGRrOKoBON/Mr4bDMQ7DIcCPGY44nVixeowj1teG8VXZWI9BvOtVlfGGDYfhEOBehiNcf8QRN45xzCdi/Mf4zCXWZ3lcvghTXW7Gjz0YDsMhwF0EGMsJoOMp59OF8pV8+puw9XJsOYm8fo3l9FfjU5bh8sbnKeenh/OJIv05qM3BcBgOAe4lwLA8xbw6+lCuuf9VlVCdwLE4rbz/5pXp1PbZZwrV24bDcAhw7wHGeP3aeOV9Y4yP+kR6ZzgEuPsAd0rvDIcA0TvDgeHQO70ToOEwHHonQAEaDr0ToAANB4ZDgOid4cBw6J3eCdBwGA69E6AADYfeCVCAhgPDIUD0znBgOPRO7wRoOPRO7wRoOAyH3glQgIYDwyFA9M5wYDj0znBgOPRO7wRoOAyH3glQgIYDwyFAw4HhECB6ZzgwHHqndwI0HIZD7z4nwK5Il38tQMOhd4ZjS1vk5b3Stnfee1evNRyGQ+8+9yFj9+sA2/bKv3tuO8NhOPROgAI0HHpnOARoOPTOcAx3W5erP1P/V207Hog6HZPK5a/GO78OsLxv2gqwvqXUdeXSdIyrXJvPb4/XHi+vNRwPF0LUu+/q3WMDTGVvu+HPPp9eGja9bXOe/mIeYB4OWq0HmEskwzGt4V2nY1zD5+nqCydD3KePbR//HwPD0e9G0zRR776qdw9+yFjusf6eKn/kcgenKZPc5rbLKeXLh4ypPX9Iu37Tub927SFjLhfSdKh89pCxb1S6PJBuOB42HD9cDr0zHPNnjmX+2/M9OA1zHu/YbuO5Zjft9uZ/VI7HnFcDHB6fjrHVAZ4fgz7++afhKGLz4+XQO8MxjyOVcS9/VsebxvsuLw8t1QHmKwep0sUxqZWDVOsBjm/fefTLcPz9cuid4Zjfg/l0At7pz9PdW+XWbRx1ngIcA1m/n8thprQdYM45d1sB5uLq8XDD8czl0DvDsXxg1/X/a4+PDXA49DSdKTyL43xcaj3AkeF4k+XQO8MxfxzXz37Xn/j/0ABP49616wepunLka/shYxp4qvImy6F3hmP5ZLM80Uwll/SbAK+eiFMdoq4CvDwMtfpc03kcb7Mcemc4lk82ywHu3N/P5zu5uyPA81vrr6ennLb+SzHd6nTraeXo9jF5OfZdlkPvDMfy+HL/YnpbBzcdHroSYP/aezlbZ/2Gq5fVZ6UYw0zVuTbzB5R5uxmG4xXLoXeGY+18mfE18bY+7+54PiV3yKAbT9HN5+PXXbd1Bt/plnJ9Gl7ubzuNh767tsp0uOHz9LfleapHHO+yHHpnONZPtBvuyVQOO58Tm5+ue1w9fzdvHKTqb6nOIHfLD60fKPbXrv1bGI7XL4feGY6bjyJz+sE9cvXaa7d047Pkv/g/el+Apy+m+u0Pvnz3cuid4fhihmP9st69Q+8Mh+EwHBgOw+Gpit4ZDgHy+oOjemc4BOjlWAyHAO2G3hkODMf7nXKud4ZDgJ+/G3pnOATI67+tXu8+Yji2T9rLOQnQbjy9d7c+Tu/eYTiu/CCC9PDvFDQcO9yNp/fujz7QcDz0/9bsR6UtPsPeMjIcf7Ebz+/dcirmv8nt8d/Aajh+rpttw/IhxsN/AKPh2N9uvKB3i3edT8XO/nP2mcOx+IHyywC7D3rIYTiK1/9Cpjt6N5uJtl387th9PeT4zOFYrPcywPxBRzkMxzgc8d1719U/iac75vlS7Oshx2cOR7Xll7+j97OeqxiOYTle/Eun7+ndNCRlMy6Go9W7lweY6seE8x++tPg94YbjSz2/d9MypHE97j0konfPCHARwcUDjA86yGE49tO7xdWXw5H07qUBplvDkQ0Hz+/djeHY1eNgw2E4DMff9274Ba7lH8lwGA4BGo47epfa9vKYh+HY3TGO7OAoT+2dRxw7CTDdODhqOAzH03t38+Co3r3P6+mrw9EaDp7fu+vD4TyO1wd4cQZfuvpc1HAYjmf07tZwOHP01QEuIlqetuF7VXhF764Ph+9VeYMAu8U3Hk6/o/fyW5EMh+F4Su/m36sySnt8pvLBP49jtu1dlZCfx8FLereYlItfQ+3ncbw+wBs/ASwZDvwEMMOxFkSXfnyN4TAcf9e7G09yOr17iwC/heHQO8OB4dA7vROg4TAceidAARoODIcADQeGQ4DoneHAcOid3gnQcBgOvROgAA2H3glQgIYDwyFA9M5wYDj0Tu8EaDj0Tu8EaDgMh94JUICGA8MhQPTOcGA49M5wCNBw6J3eCdBwGA69E6AADQeGQ4DoneEQIHpnODAceqd3AjQchkPvBChAw4HhEKDhwHAIEL0zHBgOvdM7ARoOw6F3AhSg4dA7AQrQcGA4BIjeGQ4Mh97pnQANh97pnQANh+HQOwEK0HBgOASI3hkODIfeGQ4Mh97pnQANh+HQOwEK0HBgOASI3hkOAaJ3hgPDoXd6J0DDYTj0ToACNBx6ZzgEaDgwHAJE7wwHhkPv9E6AhsNw6J0ABWg49E6AAjQcGA4BoneGA8Ohd3onQMOhd3onQMNhOPROgAI0HBgOAaJ3hgPDoXeGA8Ohd3onQMNhOPROgAI0HBgOARoO7TEcAkTvDAeGQ+/0ToCGw3DonQAFaDj0ToACNBwYDgGid4YDw6F3eidAw2E49E6AhsNw6J0ABWg4MBwCRO8MB4ZD7/ROgIZD7/ROgIbDcOidAAVoODAcAkTvDAeGQ+8MB4ZD7/ROgIbDcOidAAVoODAcAjQcGA4BoneGA8Ohd3onQMNhOPROgAI0HHonQAEaDgyHANE7w4Hh0Du9E6Dh0Du9E6DhMBx69/QA+R8mQO++sndRBv8jmgC90zsAAAAAAAAAAAAAAAAAAAAAAAAAAAAAAAAAAAAAAAAAAAAAAAAAAAAAAAAAAAAAAAAAAAAAAAAAAAAAAAAAAAAAAAAAAAAAAAAAAAAAAAAAAAAAAAAAAAAAAAAAAAAAAAAAAAAAAAAAAAAAAAAAAAAAAAAAAAAAAAAAAAAAAAAAAAAAAAAAAAAAAAAAAAAAAAAAAAAAAAAAAAAAAAAAAAAAAAAAAAAAAAAAAAAAAAAAAAAAAAAAAAAAAAAAdugfBn2RVGGjwKgAAAAASUVORK5CYII="},6804:(e,A,t)=>{t.d(A,{Z:()=>n});const n="data:image/png;base64,iVBORw0KGgoAAAANSUhEUgAABDgAAAJfCAMAAACt75ZlAAAANlBMVEVMaXGkpPN3d+3/cyT7biT0aCnS0vn7biX/cyPHNzfjmZkjIiZZVmSEhKHBweeko8vPcXP5+f++O5FOAAAACnRSTlMA////UiT/jMz5bpFOIgAAAAlwSFlzAAALEwAACxMBAJqcGAAAGkJJREFUeNrt3Yla4koCgFHoJFRpNnz/l71fVVYQbbDRK+GcmbEjmz1q/q5UQrLbAQAAAAAAAAAAAAAAAAAAAAAAAAAAAAAAAAAAAAAAAAAAAAAAAAAAAAAAAAAAAAAAAAAAAAAAAMDdlVX6WJXf+SVijOFsCXhgVRHTH7H4zq9RljHOS8IBGwhHMX/8RiHOS8IBWxhxhLRe53CUIZTT6r1aqs6WyhCqMt9dLfcuGybzU5cl4YCNhSOt07Es8vZKCEVar6sYT5bKsTAxpkqEvJRKUM63rcYWRQhx3PwJsQjCAVsMR1XsylgVKQPV/CGPF3IG5qX0IY1OyhSDYWokTredhGi32+WHpKKEQjhgk+EIabukmFbuNLwop4HCrixOdrfkzZpiKkFVVCdNGJ6wu/SpcMDGwlHGWOVwFDHGmEsRiiKW45bHuFSFGIsiTA1IH8vhCafhiKvFWBTCAdsMx66Iu2HEUSXjWj9OVKSlYbMkltUw4ojLiKNcPeM8HGVRVkYcsNlwjCv4sHKnDuQW5HW+qqaJjjwSGeY4qtyR6bZd+X7bJO1NCdGmCmw4HOMKnuc1Q5GnNMsxDfnTIRKh2g17WopYVsN4JO1Rqc6O6Eq35eenD+Wwm7eqYhwGJssSsIlwpNW8GAYRoSiKYTfrvJTuDGHYRZuWYp73SPeevWB6kTBPjxTjaww3LkvAdjJSXVg6X6jW2x6XRg/vnwo8uzRg8JYT4CZltLUB/MMWDQAAAAAAAAAAAAAAAAAAAAAAPLfqz1Nw5iG4pz9Pwk8a7hqO/RMQDhAO4QDhEA4QDuEA4RAOQDgA4RAOEA7hAOEQDhAO4QCEAxAO4QDhEA4QDuEA4RAOEA7hAIRDOEA4hAOEQzhAOG7U1K1wgHDcpK/rRjhgS+Fov2edblojDthuOJr6ewYZjTkOEA7hAOGYtlOaum6apulTQpqm2ffNOCHRpoV+2uxYPtm3dV2343K/uj09ZtwkSa+aX3Y/vuz8mNWD2iZ/jVY44MHCkVbjLK2++c/0oRnzUNd1P4wehk+mpzTTcrs8eXj6eMf0qssn7TxNOt/ejC/bCAc89KbKMhzY55W7zWv1uFOkGT9p5jv2OSz93IH54/mmSju96vpBzfrZwgGPHI55kmLJx7hunySjP3/Q+HH/eTimB9XLrpam7oUDHjsc6xmHvm3HcDSrJtT1yZ7Wvm9PwnFxcnQKx3RrIxywyXC0y2zEaTj61ZxFu57KaG4ORy8csIlw9MvBnm3f7y+EI41Exj0v6wcJBwjHOPa4GI552mP9oGlTpW0/neNo1nMcwgGPG472w3BcmONoV7EYlvspHO06GCdTHqvJ0X6VHeGARw1Hm2Y78wFd7bKYbm3b5sIcR9o8SQ8c8zE/aHidYRfrOIfaDKOPNj2madv27EHCAY8bjmGGs12OBmuXQ8Mu7VVpV0dttcuDpjum4UvfzFOr66PBVg8SDnjgcHz4dpMPV+i2/+BB7TUNaO8dCuGA3xMOZwADhAMQDuEA4RAOEA7hAOEQDhAO4QCEQzhAOIQDhEM4QDiEA4RDOADhEA4QDuEA4RAOEA7hAOEQDkA4AOEQDvj5cDwHP2m4o+o5ulH5SQMAAAAAAAAAAAAAAAAAAAAAsBUh+B4AwgEIByAcgHAAwgEgHIBwAMIBCAcgHADCAQgHIByAcADCASAcgHAAwgEIByAcgHAACAcgHIBwAMIBCAeAcAB3VVYpHFXpOwFcrYpVCFWsfCeAW8oRo24AN5ajKHQDuLUcugEAAAAAAAAAAAAAAAAAAMCPKQvgkcTfcOrN6OcAD+YXhONX/CWAx1pnhQOEQzhAOIQDEA5AOADhAIRDOEA4hAMQDkA4AOEAhEM4QDiEA4RDOADhAIQDEA7hAOEQDhAO4QCEAxAOQDgA4RAOEA7hAB4zHGU1LVy8O8S4vixdGf1wQTh2MUyFuHh3VZbTI3I4PnzN6sLzZQY2Ho51Hi4/4vNwXLonCAdsMxxp5Q5hzEMIIW+XlCFUVRiLMYUj3XiehzKEUA1/Fqsnj3/GYrx7vg3YRDjS5kSR/lfuqlikdT0HpEiTGyfhCEUMMRRnw4wQYlwiUebHzS8yhyMtFMHvBWwlHFWxq2JMf+xCrFIL8tAgLhso41Je8WPxfitmHF9M9wwvcrKpUhbV+AHYRDh2RZWGCmlVHwoxfoxncxzDen824oixujjHUQ2RmMIx/BltrMBmwhHLmGYq4lk4wsVwnM1xVLGY9tbO95QxFsVZOIoYY7StAtsJR2pGFef50eljeU040u7aUJxsqlRFqN6POKrE7wVsJxwxT4+W4+ZJNc5xnIdjuP18crRahWW1WVJe2lRRDthOOMq0CRFTFtJSlWdI0xBkWM+ralqMsazK4v0cRzk2phgell6kjEM4yvG2Kn2JYHIUthOOPJQYRhIhFkUc5kCTnIa8lB5SpTvDuzmOopgPPR0W03OnPShheGoqybAAbCMcpyX4dFRQXXdbdfMLA94dCwgHIByAcAgHCIdwgHAIByAcgHAAwiEcIBzCAcIhHIBwAMIBCIdwgHAIBwiHcADCAQgHIBx+Dr5RCIf1QTgQDuEQDhAO4QDhEA4QDj8H3yiEw/pwr3BUIZS7MFz4Ni3uTpdAOPwc3j2qKooQ83V0d7EIMV/SsooxhOk6lyAcz/BzOFxh+UaFmC94my7Ana6hmz8t072lcCAcwvFBOGLuw3x57HIIh2ggHMLxWTjKORxpk6WIeRhSFNEcB8IhHH8fcZSxrIYRR95QidEvNcIhHB+EI+YZ0nJcynMcVTVNdIBwCMelydEiVGXeqxKKNOCY50qNOBAO4fgoHGk+o6jG3bFFDNMcRxErv9QIh3BcDkeV/zvuVVlaUckGwiEcnxzHUY0fQDiE45ZNFd1AOITjpnDYLEE4hOML4QDhuMJ+A4Rj+zbzOykcwoFwPHE4Dg/ufwhHiNHbV346HBv5nRSOJw5HVZbCIRzCIRw3Ew7hEA7hmDdCxtMElvljOolgWVbjbaEsl5MIDuGowvDRPlzhEI4nDkeIIeT31g9vUxne3xZDzGfmiGE6neAy4hjP3WHFFg7heOJwpA5U5+FIw455Kb1tdhWOXJnoHGHCIRxPHY5po2MdjikQJycWHMMRinQCD1sqwiEczxyOMhYxt2MVjvBZONKntlSEQziefa/KeJrAq8MRgh0swiEczz7imE4dGE5PIni2tApHWdhS+eFw9G3bC4dw/KJw5Esh5OnP5SSCaT9KlW/LS0M9qiqG8X20hdMK/mw42rpp6qb76KfZtFf91vTNXX8Ju9O/kHA83e7YohiGFPNJBNN13Ibb8lI+W0d61PJAWyo/GY62bg+Hrm7+NRz1fcNRC8dzz3Es5+MYF9LMRnW2tGZq9GfD0TRDPtLa2jbDRkvbp8V8S1s3bZsW27bt+qbph1vbbtzKafJS3zZ1+26LZ9kGapuxP+l1l6Vu+GL5oWmp64d7+7Y9fTnheLpwvLMcpHHxcI3y7gdxhCpd+HrYL1xeuPJ1CPM+42mpDKEqx0NZwzYPY51/T+t2WI27Q9fUaf3PMWnS5kvaYmjqZljpm6bu67yY/mjypkRfN21T92lDJT/uNBzppuHV0wvnQC1fostPbae/QA5Xft30ab98WeEQjnm3ySfhCMW9BxxVEdMFr/PMSSzG610vV74eloZJ3BjyMWnpLzE+oZxv23g4hrFHl1rQj0vtsLUwr75dPYahyds27TRaGYYs7zdV+uFFDuMr5Rduhy/Rjc/Kd6zDMb+cTZU8rpuHdl+fKxobn2LcNI8cjp+WdtLEmC8BVRbV/GG68nVYlqaDVvOUbjUeFb/VA1kvhaOdPg6jg7o/C0d7NvWRW3Douk/mOPLN7dCCbq5CykU/fYlVOPrlwcIxDOzOp5iunHKaw9H34z8AeUk4bglHbkL+Yz6YZLnydXk6FxvD2JL84GHP8CZnXb4Sjn7+V6yu8xbFau2+EI42P24eRBxOloYXE47PwnFpsHH7qGF5HeH4ajiKGGMc3kc3X/l6XqrydbHDFIr0sRyesOlwNPMcx1/D0c2bNN044vgsHG3dd10vHP8ejjxh3KUNxTbNMrfjT2wcjaRtkT4td818W9owmTZy3oVjeH7b/mg4rvNrRxxVMg415itfl8PESkzXxY4n4aiKcvWMre9VGXPxt3AMtw87cfv5N/D9v4/jLMb8C9v00ws308xGP4ejeReOXji69UbiOJ9UN9M08zS53LbjrHVXL7fVKTHdB+GoT0eawnHdpkrqwHLl66qaJjrGY0vGWZDhuNZhO6bccjj6uum7dtjyaLsu/7qdhKPp8yxG19fjQnpYO06O9l0/7pap2+Hu9Yjj0OcgjM/o5i8xHj7SjytD3/Xvw9GsX+45wzFPjrZ1N85UzGO2Jcvpe9WNf8539Muc1Ltw5B/s5Q2h/+Xw3l9qFY5qdSDrdMj7cAxrHN/JO+xpKWJZDeORtEel2vbkaFq56+F3rG3qYc/JOhxdujGPCephIT9sPMxjfup46+mEfl03w+9qP73w8iUObXq57uRxq3AMTzE5Og4blknSORzt/COaCtGtv3/p+/pBOJatUeG4LhzpzbqrA1mH3azzUrozhGEXbVrKx8Lne3ebDsfh0PfzoPi6f4aWh3WfPWN13/oZ75b+/lWffXJ0ObJ3Dked9avNulU48j8GH4048p/331LZWjjOMlJdWDpfqHarfSkbfcedd8c+UjjaeprzORlxXJp8SuFI24bzQ96Ho6v7vjkIx/1/0uE7jmAVDuH4Yji6umubC3Mch767GI781A/nOFJSGuH4BnmLZuOnLxSOB5oczfta2+k9iX1/WE8zr2atVyOOvh/2r6TDvvr0jG5eSk+ue+H43i0a4RCO/ykczXTk6Dht0U9H381T1HkUMjxsOtJjePAwf92Ph5znu/t56dM3QwsHwrHtN7n9w/7Ub5gaFQ7hEI6HCMeXTW9fEQ6EQziudn7+A+FAOITj0X5ICIdwCAfCIRzCIRwIh3AIB8IhHMtBH8KBcAjHje55cq+mFY4nFK67gqZwbGvEIRz8WzemEwcIx6OHYzoRYDrFWjozT9Mf0ltQxnMCLqcJzKcTrN8drz5d+mZeat89dTh5Wz4n4fTCqyvpCMczicV15RCO3x6OdHLA/C7W9O6TusnvYWvyyQHPTh2YrlDT1GdbLtOpA/NS3a1vm194fIvtcGLC8YW780vaCMdzKIvryiEcvz0c+Y30XT7/Yj7JYl/Pl77pVqcO7JZztq6eO506cLy3XX86vnB7Go5ufgO+TRXlEI7HDcewVjdNPhtHm85gvj6n43zqwOHiNhcmR7vlRPRdN5+ftFu98Ek4LpyeWjiUQzgeNxyHpk//aU/W7/nUgf24HXI2xVFPl75ZBjAXXlg4uLEcwvFA4UjjjXa5vMQ84jjMJ/g6Dcdy6sBLV2MSDr5eDuH4/XMc01rctmmWoz65bsV86sBhbT+d41hOHbhc+qafl5YXzi/SCwfXl0M4fns4+nSlmnHSsllf4Hu8Lsp06sC0G7Wtz0cc06kDm+mqOeNSN16zphkvczM+bh2OthnOTigcyvH57+mf3+uZj+OYr0bTzaODpl2dIvDkujTN2WhlPHXg6tI3w+MOp5e5SQtNf/LCy9kJhUM5hOPxwvE3t5/Fq7vHiwjHU5dDOB4+HN4dy8+XQziE4/vDsbqQdDVeVzqe/H4ulyEJ4+fTb2wcP69WL3XF0//2cvf922zy/9zn5RAO4RAO4fj4byMcwiEcwnHr3yYKh3AIh3DYVBEOk6OYHBUO4cDuWOEQDrbbDeEQDuHg5m4Ih3AIBzd3QziEQzi4uRvCIRzCwc3dEA7hEA5u7oZwCIdwcHM3hEM4hIObuyEcwiEcLL5yQSbhEA7heHJfuQSkcAiHcDx9OW6/6LRwCIdwsBMO4RAOhEM4hAPhEA7h4GnCsc/Swvj5tLTfX/f8TjiEg2cLx/4t6/7s38bP/+zfcgveDlc2QDiEg+cLx7T0th87sM/J2AuHcAiHcPw1HMMT3vZpELLP6/bpI7tDN22czEuHbnzavjvshUM4eL5w5KX0Yf/Wdakgpy/wdugOeVCyfzt0OS1/urfp63T5NuEQDp4mHNPk6J9hnJFvevuzP5yG4/CW+5Ae1v2ZHzdNhQxLnXAIB081OTptq6QC7N/ScGN/Go63/ckQJX3s5mcNt3UH4RAOnm1TZdihMvzZHdKY44ZwZMIhHDxfONI44zDe9HY4G0BcMeIwOSocPGM4Dt04+5mPATsLR5f3okwJGSZR/5zMdvzZC4dw8HSTo2mLY9WS03B0eT/tIU+T7sdjxN4O+7Q/Za6HyVHh4LkmR7s/y8GiF8Pxp5snMQ7T49NzD8PD5tuEQzh4gnB4k5twCAfCIRzCgXAIh3AgHMIhHAiHcAgHwiEcwiEcwiEcwiEcCIdwCAfCIRzCgXAIh3AgHMIhHMIhHMIhHMLBY4Vjf6oTjq2Eo4zBWiccPxOO7iAcGwlHWRSFcgjHj4SjOwjHRsKRulFEq51w/EA4uoNwbCQcuRtFabUTju8PR3cQjo2EQzeE48fC0R2EYyPh0A3h+LFwdAfh2Eg4dEM4fiwc3UE4NhIO3RCOHwtHdxCOjYRDN4Tjx8LRHYRjI+HQDeH4sXB0B+HYSDh0Qzh+LBzdQTg2Eg7dEI4fC0d3EI6NhEM3hOPHwtEdhGMj4TjpRlUM4smdyxtYwvj5lJk4fl7N38Wrnv63l9vd9W9z55f7Rf/nHi4c3UE4thKOuO11Szh+UTi6g3BsJhyFcGw7HNs9R4xw2FQRDuEQDpOj/J7JUeEQDrtjEQ7hcAAYwiEcDjlHOITjicKhHMIhHMLxhR+ScgiHcAjH7T8k5RAO4RCO239IyiEcwiEct/+QlEM4hEM4bv8hKYdwCIdw3P5DckEm4bibo3A8TThcAlI47uX15VU4niYcLjotHHfy8vIiHM8TDoTjTgOOl+uHHMIhHAjH4XDoXl6OLy+dcAgHwnHDzOjL8fX4chQO4UA4rta/vLy+vr689MIhHAjH9TOjx9fX1+O186PCIRwIR5oZfX3NQ45X4Zh+II/PavUM4fhhfd8ek5fBMYfj+PJyPB7bvv+m30nhEA4eNBypGC/vvL6OQ47J8Xj8rB+bDwcwqsrwcpKG4/H4emo9CklCWW1tnRUO+Eo03tXiklU/7hcP4YBHqka4pRkn+ZjiUQkHPGE1bm3Gqh53a4dwwHNU42Tk8a/tEA54AOVqV+s/G9pRCgdsWrjHWOPEkI5KOGDb2Xi9s+M/bbEIBzxhNuZ0lMLxyK77FvhGPZ3q27Lxb+kQDuHgdw83vi0bUzq+sr0iHMLBb1V+dzamdJTC8dzhKEOMn/0SlC7A8GDDjdcfkAYdwvHM4SiLUH66iy0Ix0PNbhxff0QadFTC8bzh+GsXhOOhuvH6Y24uh3A8ZjjKEMpdGK7EkpfH7ZSQl/PnVbozVNO96WGVcOjGfcohHI8ajiLEIqYOxCKEfA24MIcjB6Usqt2uyI/L9xYxxCgcunGXcgjHo26qxPHCb7kP+cOyJbIKRxxvrnI9hEM3PimHcDxFONbTFsOF7i+EY1ga/meO41H8D924sRzC8fDhKGKM8cNwlMLxeML/0Y1UjlI4th+OMI04qmQnHFvaUDn+H+E43jDNIRyPH478u1b9NRyVcDzMgON/6UYuh3BsPBxVjEMs8qxnOJ0cDUVZlfEkHLv0+FAIx0MMOF7/J9cPOYTjMcNRFslw+EacluZwVLEo4umIY7jNiMOA4z5DDuF41E2V9T9R1TU37SrrpAHHX4ccwvE84WBLyv83HKVwCAfPsaVybJrmtclPa5pmfPqydNO2ShAO4eAB3b4v9ljXTV3Xzevra15qxtuavPQ92yrCIRz8snDcurI3df7QpFwcx0+P+TbhEA7fKOH4wDCwmIcXYziab50dFQ7hYDvhSJssdf06LjXCIRy+UcLx13A09fE4jDjylGldC4dw+EYJxwfhmLdN6nreVDlOS99zBJhw/JZwHK7gG/UEbt8d29TN8ViPI460P+V1WHqta7tjhUM4nkP5ld0qdX0cd8emHbLTbfXRAWDCIRy2VT4YJuT/jpVYWvGVi1Rf/S434RAOfls4jrcOOI7jh39/k1vYCYdw8Ihuf5fb1zZLvK1eOHjqIcfXNkv+ZcAhHMLBLxxyOHWgcAgHNyr/r5MVh51wCAcPvLHi8gjCIRw8QDluu5SbcAgHv3KawyUghUM4+OXlcNFp4UA5vrsbwiEc/N5yHH9sP+yN3RAO4eC3Cj806Hi5ZT+scAgHv1z5E4OONNwod8LxqOG4jpXpuTZXwnen4/iV4YZwCAe/f9DxfelI2XipdsIB0nFTNsIDr7PCAZ9vr9w/Hf+SDeGAB0jH3Ucdx3/LhnDA42yw3KsduRpf2JUiHPCYWywv/3rKnmGs8RKqDayzwgHXt+PrA487VUM44DHbcfPIY2zGXaohHPB47SineLwcr8nHcW7GSyirLa2zwgFfjcfQj+N5Q4abVg+6XzSEAx67Hut8fCiUd22GcMAW+pECcqEgIXxHMYQDEA5AOADhEA4QDuEA4fCXAIQDEA5AOIQDhEM4QDiEAxAOQDgA66xwgHAIBwiHcADCAQgHIByAcAgHCIdwAMIBCAcgHIBwCAcIh3CAcAgHIByAcADCIRwgHMIBwiEcgHAAwgFYZ4UDhEM4QDiEAxAOQDgA4QCEQzhAOIQDEA5AOADhAIRDOEA4hAOEQzgA4QCEAxAO4QDhEA4QDuEAhAMQDkA4AOEQDhAO4QCEAxAOQDgA4RAOEA7hAOHwlwCEAxAOQDiEA4RDOEA4hAMQDkA4AOEQDhAO4QDhEA5AOADhAJ47HMBDib8gHGX0c4CHUhp1AQAAAAAAAAAAAAAAAAAAAAAAAAAAAAAAAAAAAAAAAAAAAAAAAAAAAAAAAAAAAAAAAAAA/DL/AQ1nDBSxW6MeAAAAAElFTkSuQmCC"}}]);